{
  "_format": "hh-sol-artifact-1",
  "contractName": "EmailService",
  "sourceName": "contracts/basic-solidity-examples/EmailService.sol",
  "abi": [
    {
      "anonymous": false,
      "inputs": [
        {
          "indexed": false,
          "internalType": "address",
          "name": "_spamAddress",
          "type": "address"
        }
      ],
      "name": "RemovedfromSpam",
      "type": "event"
    },
    {
      "anonymous": false,
      "inputs": [
        {
          "indexed": false,
          "internalType": "address",
          "name": "sender",
          "type": "address"
        },
        {
          "indexed": false,
          "internalType": "address",
          "name": "reciever",
          "type": "address"
        },
        {
          "indexed": false,
          "internalType": "string",
          "name": "subject",
          "type": "string"
        },
        {
          "indexed": false,
          "internalType": "string",
          "name": "body",
          "type": "string"
        },
        {
          "indexed": false,
          "internalType": "uint256",
          "name": "timestamp",
          "type": "uint256"
        },
        {
          "indexed": false,
          "internalType": "string",
          "name": "ipfsHash",
          "type": "string"
        },
        {
          "indexed": false,
          "internalType": "string",
          "name": "Filename",
          "type": "string"
        }
      ],
      "name": "Send",
      "type": "event"
    },
    {
      "anonymous": false,
      "inputs": [
        {
          "indexed": false,
          "internalType": "address",
          "name": "_spamAddress",
          "type": "address"
        }
      ],
      "name": "report",
      "type": "event"
    },
    {
      "inputs": [],
      "name": "currentBalance",
      "outputs": [
        {
          "internalType": "uint256",
          "name": "",
          "type": "uint256"
        }
      ],
      "stateMutability": "view",
      "type": "function"
    },
    {
      "inputs": [],
      "name": "getInboxEmails",
      "outputs": [
        {
          "components": [
            {
              "internalType": "address",
              "name": "sender",
              "type": "address"
            },
            {
              "internalType": "address",
              "name": "receiver",
              "type": "address"
            },
            {
              "internalType": "string",
              "name": "subject",
              "type": "string"
            },
            {
              "internalType": "string",
              "name": "body",
              "type": "string"
            },
            {
              "internalType": "uint256",
              "name": "timestamp",
              "type": "uint256"
            },
            {
              "internalType": "string",
              "name": "ipfsHash",
              "type": "string"
            },
            {
              "internalType": "string",
              "name": "Filename",
              "type": "string"
            }
          ],
          "internalType": "struct EmailService.Email[]",
          "name": "",
          "type": "tuple[]"
        }
      ],
      "stateMutability": "view",
      "type": "function"
    },
    {
      "inputs": [],
      "name": "getSentEmails",
      "outputs": [
        {
          "components": [
            {
              "internalType": "address",
              "name": "sender",
              "type": "address"
            },
            {
              "internalType": "address",
              "name": "receiver",
              "type": "address"
            },
            {
              "internalType": "string",
              "name": "subject",
              "type": "string"
            },
            {
              "internalType": "string",
              "name": "body",
              "type": "string"
            },
            {
              "internalType": "uint256",
              "name": "timestamp",
              "type": "uint256"
            },
            {
              "internalType": "string",
              "name": "ipfsHash",
              "type": "string"
            },
            {
              "internalType": "string",
              "name": "Filename",
              "type": "string"
            }
          ],
          "internalType": "struct EmailService.Email[]",
          "name": "",
          "type": "tuple[]"
        }
      ],
      "stateMutability": "view",
      "type": "function"
    },
    {
      "inputs": [],
      "name": "get_Spam_list",
      "outputs": [
        {
          "internalType": "address[]",
          "name": "",
          "type": "address[]"
        }
      ],
      "stateMutability": "view",
      "type": "function"
    },
    {
      "inputs": [
        {
          "internalType": "address",
          "name": "",
          "type": "address"
        },
        {
          "internalType": "uint256",
          "name": "",
          "type": "uint256"
        }
      ],
      "name": "inbox",
      "outputs": [
        {
          "internalType": "address",
          "name": "sender",
          "type": "address"
        },
        {
          "internalType": "address",
          "name": "receiver",
          "type": "address"
        },
        {
          "internalType": "string",
          "name": "subject",
          "type": "string"
        },
        {
          "internalType": "string",
          "name": "body",
          "type": "string"
        },
        {
          "internalType": "uint256",
          "name": "timestamp",
          "type": "uint256"
        },
        {
          "internalType": "string",
          "name": "ipfsHash",
          "type": "string"
        },
        {
          "internalType": "string",
          "name": "Filename",
          "type": "string"
        }
      ],
      "stateMutability": "view",
      "type": "function"
    },
    {
      "inputs": [
        {
          "internalType": "address",
          "name": "_spamAddress",
          "type": "address"
        }
      ],
      "name": "removeFromSpam",
      "outputs": [],
      "stateMutability": "nonpayable",
      "type": "function"
    },
    {
      "inputs": [
        {
          "internalType": "address",
          "name": "_spamAddress",
          "type": "address"
        }
      ],
      "name": "reportSpam",
      "outputs": [],
      "stateMutability": "nonpayable",
      "type": "function"
    },
    {
      "inputs": [
        {
          "internalType": "address",
          "name": "_reciever",
          "type": "address"
        },
        {
          "internalType": "string",
          "name": "subject",
          "type": "string"
        },
        {
          "internalType": "string",
          "name": "body",
          "type": "string"
        },
        {
          "internalType": "uint256",
          "name": "timestamp",
          "type": "uint256"
        },
        {
          "internalType": "string",
          "name": "ipfsHash",
          "type": "string"
        },
        {
          "internalType": "string",
          "name": "Filename",
          "type": "string"
        }
      ],
      "name": "sendEmail",
      "outputs": [],
      "stateMutability": "nonpayable",
      "type": "function"
    },
    {
      "inputs": [
        {
          "internalType": "address",
          "name": "",
          "type": "address"
        },
        {
          "internalType": "uint256",
          "name": "",
          "type": "uint256"
        }
      ],
      "name": "sent",
      "outputs": [
        {
          "internalType": "address",
          "name": "sender",
          "type": "address"
        },
        {
          "internalType": "address",
          "name": "receiver",
          "type": "address"
        },
        {
          "internalType": "string",
          "name": "subject",
          "type": "string"
        },
        {
          "internalType": "string",
          "name": "body",
          "type": "string"
        },
        {
          "internalType": "uint256",
          "name": "timestamp",
          "type": "uint256"
        },
        {
          "internalType": "string",
          "name": "ipfsHash",
          "type": "string"
        },
        {
          "internalType": "string",
          "name": "Filename",
          "type": "string"
        }
      ],
      "stateMutability": "view",
      "type": "function"
    },
    {
      "inputs": [
        {
          "internalType": "address",
          "name": "",
          "type": "address"
        },
        {
          "internalType": "uint256",
          "name": "",
          "type": "uint256"
        }
      ],
      "name": "spam_list",
      "outputs": [
        {
          "internalType": "address",
          "name": "",
          "type": "address"
        }
      ],
      "stateMutability": "view",
      "type": "function"
    }
  ],
  "bytecode": "0x608060405234801561001057600080fd5b50612522806100206000396000f3fe608060405234801561001057600080fd5b506004361061009e5760003560e01c80637f106eba116100665780637f106eba14610167578063afb35afc14610183578063b6a570e11461019f578063ce845d1d146101cf578063fcfd6b0a146101ed5761009e565b806329ea4301146100a35780633bcb2e66146100c15780634bbb04f1146100f75780634d622e7a146101155780637e2908b01461014b575b600080fd5b6100ab61020b565b6040516100b89190611aac565b60405180910390f35b6100db60048036038101906100d69190611b3a565b6105a5565b6040516100ee9796959493929190611be2565b60405180910390f35b6100ff610864565b60405161010c9190611d1c565b60405180910390f35b61012f600480360381019061012a9190611b3a565b61092f565b6040516101429796959493929190611be2565b60405180910390f35b61016560048036038101906101609190611d3e565b610bee565b005b610181600480360381019061017c9190611ea0565b610ee9565b005b61019d60048036038101906101989190611d3e565b61136e565b005b6101b960048036038101906101b49190611b3a565b611448565b6040516101c69190611f9d565b60405180910390f35b6101d7611496565b6040516101e49190611fb8565b60405180910390f35b6101f56114b5565b6040516102029190611aac565b60405180910390f35b6060600260003373ffffffffffffffffffffffffffffffffffffffff1673ffffffffffffffffffffffffffffffffffffffff168152602001908152602001600020805480602002602001604051908101604052809291908181526020016000905b8282101561059c57838290600052602060002090600702016040518060e00160405290816000820160009054906101000a900473ffffffffffffffffffffffffffffffffffffffff1673ffffffffffffffffffffffffffffffffffffffff1673ffffffffffffffffffffffffffffffffffffffff1681526020016001820160009054906101000a900473ffffffffffffffffffffffffffffffffffffffff1673ffffffffffffffffffffffffffffffffffffffff1673ffffffffffffffffffffffffffffffffffffffff16815260200160028201805461034b90612002565b80601f016020809104026020016040519081016040528092919081815260200182805461037790612002565b80156103c45780601f10610399576101008083540402835291602001916103c4565b820191906000526020600020905b8154815290600101906020018083116103a757829003601f168201915b505050505081526020016003820180546103dd90612002565b80601f016020809104026020016040519081016040528092919081815260200182805461040990612002565b80156104565780601f1061042b57610100808354040283529160200191610456565b820191906000526020600020905b81548152906001019060200180831161043957829003601f168201915b505050505081526020016004820154815260200160058201805461047990612002565b80601f01602080910402602001604051908101604052809291908181526020018280546104a590612002565b80156104f25780601f106104c7576101008083540402835291602001916104f2565b820191906000526020600020905b8154815290600101906020018083116104d557829003601f168201915b5050505050815260200160068201805461050b90612002565b80601f016020809104026020016040519081016040528092919081815260200182805461053790612002565b80156105845780601f1061055957610100808354040283529160200191610584565b820191906000526020600020905b81548152906001019060200180831161056757829003601f168201915b5050505050815250508152602001906001019061026c565b50505050905090565b600260205281600052604060002081815481106105c157600080fd5b9060005260206000209060070201600091509150508060000160009054906101000a900473ffffffffffffffffffffffffffffffffffffffff16908060010160009054906101000a900473ffffffffffffffffffffffffffffffffffffffff169080600201805461063190612002565b80601f016020809104026020016040519081016040528092919081815260200182805461065d90612002565b80156106aa5780601f1061067f576101008083540402835291602001916106aa565b820191906000526020600020905b81548152906001019060200180831161068d57829003601f168201915b5050505050908060030180546106bf90612002565b80601f01602080910402602001604051908101604052809291908181526020018280546106eb90612002565b80156107385780601f1061070d57610100808354040283529160200191610738565b820191906000526020600020905b81548152906001019060200180831161071b57829003601f168201915b50505050509080600401549080600501805461075390612002565b80601f016020809104026020016040519081016040528092919081815260200182805461077f90612002565b80156107cc5780601f106107a1576101008083540402835291602001916107cc565b820191906000526020600020905b8154815290600101906020018083116107af57829003601f168201915b5050505050908060060180546107e190612002565b80601f016020809104026020016040519081016040528092919081815260200182805461080d90612002565b801561085a5780601f1061082f5761010080835404028352916020019161085a565b820191906000526020600020905b81548152906001019060200180831161083d57829003601f168201915b5050505050905087565b6060600360003373ffffffffffffffffffffffffffffffffffffffff1673ffffffffffffffffffffffffffffffffffffffff16815260200190815260200160002080548060200260200160405190810160405280929190818152602001828054801561092557602002820191906000526020600020905b8160009054906101000a900473ffffffffffffffffffffffffffffffffffffffff1673ffffffffffffffffffffffffffffffffffffffff16815260200190600101908083116108db575b5050505050905090565b6001602052816000526040600020818154811061094b57600080fd5b9060005260206000209060070201600091509150508060000160009054906101000a900473ffffffffffffffffffffffffffffffffffffffff16908060010160009054906101000a900473ffffffffffffffffffffffffffffffffffffffff16908060020180546109bb90612002565b80601f01602080910402602001604051908101604052809291908181526020018280546109e790612002565b8015610a345780601f10610a0957610100808354040283529160200191610a34565b820191906000526020600020905b815481529060010190602001808311610a1757829003601f168201915b505050505090806003018054610a4990612002565b80601f0160208091040260200160405190810160405280929190818152602001828054610a7590612002565b8015610ac25780601f10610a9757610100808354040283529160200191610ac2565b820191906000526020600020905b815481529060010190602001808311610aa557829003601f168201915b505050505090806004015490806005018054610add90612002565b80601f0160208091040260200160405190810160405280929190818152602001828054610b0990612002565b8015610b565780601f10610b2b57610100808354040283529160200191610b56565b820191906000526020600020905b815481529060010190602001808311610b3957829003601f168201915b505050505090806006018054610b6b90612002565b80601f0160208091040260200160405190810160405280929190818152602001828054610b9790612002565b8015610be45780601f10610bb957610100808354040283529160200191610be4565b820191906000526020600020905b815481529060010190602001808311610bc757829003601f168201915b5050505050905087565b60005b6001600360003373ffffffffffffffffffffffffffffffffffffffff1673ffffffffffffffffffffffffffffffffffffffff16815260200190815260200160002080549050610c409190612062565b811015610e2a578173ffffffffffffffffffffffffffffffffffffffff16600360003373ffffffffffffffffffffffffffffffffffffffff1673ffffffffffffffffffffffffffffffffffffffff1681526020019081526020016000208281548110610caf57610cae612096565b5b9060005260206000200160009054906101000a900473ffffffffffffffffffffffffffffffffffffffff1673ffffffffffffffffffffffffffffffffffffffff1603610e1757600360003373ffffffffffffffffffffffffffffffffffffffff1673ffffffffffffffffffffffffffffffffffffffff168152602001908152602001600020600182610d4191906120c5565b81548110610d5257610d51612096565b5b9060005260206000200160009054906101000a900473ffffffffffffffffffffffffffffffffffffffff16600360003373ffffffffffffffffffffffffffffffffffffffff1673ffffffffffffffffffffffffffffffffffffffff1681526020019081526020016000208281548110610dce57610dcd612096565b5b9060005260206000200160006101000a81548173ffffffffffffffffffffffffffffffffffffffff021916908373ffffffffffffffffffffffffffffffffffffffff1602179055505b8080610e22906120f9565b915050610bf1565b50600360003373ffffffffffffffffffffffffffffffffffffffff1673ffffffffffffffffffffffffffffffffffffffff168152602001908152602001600020805480610e7a57610e79612141565b5b6001900381819060005260206000200160006101000a81549073ffffffffffffffffffffffffffffffffffffffff021916905590557f6f601720e689b843db1700843d66b95a30c555859b3e2f53f8b96493b89192e581604051610ede9190611f9d565b60405180910390a150565b60003373ffffffffffffffffffffffffffffffffffffffff163111610f43576040517f08c379a0000000000000000000000000000000000000000000000000000000008152600401610f3a906121bc565b60405180910390fd5b8573ffffffffffffffffffffffffffffffffffffffff163373ffffffffffffffffffffffffffffffffffffffff1603610fb1576040517f08c379a0000000000000000000000000000000000000000000000000000000008152600401610fa89061224e565b60405180910390fd5b600160008773ffffffffffffffffffffffffffffffffffffffff1673ffffffffffffffffffffffffffffffffffffffff1681526020019081526020016000206040518060e001604052803373ffffffffffffffffffffffffffffffffffffffff1681526020018873ffffffffffffffffffffffffffffffffffffffff16815260200187815260200186815260200185815260200184815260200183815250908060018154018082558091505060019003906000526020600020906007020160009091909190915060008201518160000160006101000a81548173ffffffffffffffffffffffffffffffffffffffff021916908373ffffffffffffffffffffffffffffffffffffffff16021790555060208201518160010160006101000a81548173ffffffffffffffffffffffffffffffffffffffff021916908373ffffffffffffffffffffffffffffffffffffffff160217905550604082015181600201908161111b919061241a565b506060820151816003019081611131919061241a565b506080820151816004015560a0820151816005019081611151919061241a565b5060c0820151816006019081611167919061241a565b505050600260003373ffffffffffffffffffffffffffffffffffffffff1673ffffffffffffffffffffffffffffffffffffffff1681526020019081526020016000206040518060e001604052803373ffffffffffffffffffffffffffffffffffffffff1681526020018873ffffffffffffffffffffffffffffffffffffffff16815260200187815260200186815260200185815260200184815260200183815250908060018154018082558091505060019003906000526020600020906007020160009091909190915060008201518160000160006101000a81548173ffffffffffffffffffffffffffffffffffffffff021916908373ffffffffffffffffffffffffffffffffffffffff16021790555060208201518160010160006101000a81548173ffffffffffffffffffffffffffffffffffffffff021916908373ffffffffffffffffffffffffffffffffffffffff16021790555060408201518160020190816112d4919061241a565b5060608201518160030190816112ea919061241a565b506080820151816004015560a082015181600501908161130a919061241a565b5060c0820151816006019081611320919061241a565b5050507fa6350c14583e2f1226e944596e0059ff862b97ee0ad1582f6fb81b582070719b3387878787878760405161135e9796959493929190611be2565b60405180910390a1505050505050565b600360003373ffffffffffffffffffffffffffffffffffffffff1673ffffffffffffffffffffffffffffffffffffffff168152602001908152602001600020819080600181540180825580915050600190039060005260206000200160009091909190916101000a81548173ffffffffffffffffffffffffffffffffffffffff021916908373ffffffffffffffffffffffffffffffffffffffff1602179055507fe053ea31271249fd8c11cf7f87e66ff15a4d9e8c2030afc3c37b9b80ee9190558160405161143d9190611f9d565b60405180910390a150565b6003602052816000526040600020818154811061146457600080fd5b906000526020600020016000915091509054906101000a900473ffffffffffffffffffffffffffffffffffffffff1681565b60003373ffffffffffffffffffffffffffffffffffffffff1631905090565b6060600160003373ffffffffffffffffffffffffffffffffffffffff1673ffffffffffffffffffffffffffffffffffffffff168152602001908152602001600020805480602002602001604051908101604052809291908181526020016000905b8282101561184657838290600052602060002090600702016040518060e00160405290816000820160009054906101000a900473ffffffffffffffffffffffffffffffffffffffff1673ffffffffffffffffffffffffffffffffffffffff1673ffffffffffffffffffffffffffffffffffffffff1681526020016001820160009054906101000a900473ffffffffffffffffffffffffffffffffffffffff1673ffffffffffffffffffffffffffffffffffffffff1673ffffffffffffffffffffffffffffffffffffffff1681526020016002820180546115f590612002565b80601f016020809104026020016040519081016040528092919081815260200182805461162190612002565b801561166e5780601f106116435761010080835404028352916020019161166e565b820191906000526020600020905b81548152906001019060200180831161165157829003601f168201915b5050505050815260200160038201805461168790612002565b80601f01602080910402602001604051908101604052809291908181526020018280546116b390612002565b80156117005780601f106116d557610100808354040283529160200191611700565b820191906000526020600020905b8154815290600101906020018083116116e357829003601f168201915b505050505081526020016004820154815260200160058201805461172390612002565b80601f016020809104026020016040519081016040528092919081815260200182805461174f90612002565b801561179c5780601f106117715761010080835404028352916020019161179c565b820191906000526020600020905b81548152906001019060200180831161177f57829003601f168201915b505050505081526020016006820180546117b590612002565b80601f01602080910402602001604051908101604052809291908181526020018280546117e190612002565b801561182e5780601f106118035761010080835404028352916020019161182e565b820191906000526020600020905b81548152906001019060200180831161181157829003601f168201915b50505050508152505081526020019060010190611516565b50505050905090565b600081519050919050565b600082825260208201905092915050565b6000819050602082019050919050565b600073ffffffffffffffffffffffffffffffffffffffff82169050919050565b60006118a68261187b565b9050919050565b6118b68161189b565b82525050565b600081519050919050565b600082825260208201905092915050565b60005b838110156118f65780820151818401526020810190506118db565b60008484015250505050565b6000601f19601f8301169050919050565b600061191e826118bc565b61192881856118c7565b93506119388185602086016118d8565b61194181611902565b840191505092915050565b6000819050919050565b61195f8161194c565b82525050565b600060e08301600083015161197d60008601826118ad565b50602083015161199060208601826118ad565b50604083015184820360408601526119a88282611913565b915050606083015184820360608601526119c28282611913565b91505060808301516119d76080860182611956565b5060a083015184820360a08601526119ef8282611913565b91505060c083015184820360c0860152611a098282611913565b9150508091505092915050565b6000611a228383611965565b905092915050565b6000602082019050919050565b6000611a428261184f565b611a4c818561185a565b935083602082028501611a5e8561186b565b8060005b85811015611a9a5784840389528151611a7b8582611a16565b9450611a8683611a2a565b925060208a01995050600181019050611a62565b50829750879550505050505092915050565b60006020820190508181036000830152611ac68184611a37565b905092915050565b6000604051905090565b600080fd5b600080fd5b611aeb8161189b565b8114611af657600080fd5b50565b600081359050611b0881611ae2565b92915050565b611b178161194c565b8114611b2257600080fd5b50565b600081359050611b3481611b0e565b92915050565b60008060408385031215611b5157611b50611ad8565b5b6000611b5f85828601611af9565b9250506020611b7085828601611b25565b9150509250929050565b611b838161189b565b82525050565b600082825260208201905092915050565b6000611ba5826118bc565b611baf8185611b89565b9350611bbf8185602086016118d8565b611bc881611902565b840191505092915050565b611bdc8161194c565b82525050565b600060e082019050611bf7600083018a611b7a565b611c046020830189611b7a565b8181036040830152611c168188611b9a565b90508181036060830152611c2a8187611b9a565b9050611c396080830186611bd3565b81810360a0830152611c4b8185611b9a565b905081810360c0830152611c5f8184611b9a565b905098975050505050505050565b600081519050919050565b600082825260208201905092915050565b6000819050602082019050919050565b6000611ca583836118ad565b60208301905092915050565b6000602082019050919050565b6000611cc982611c6d565b611cd38185611c78565b9350611cde83611c89565b8060005b83811015611d0f578151611cf68882611c99565b9750611d0183611cb1565b925050600181019050611ce2565b5085935050505092915050565b60006020820190508181036000830152611d368184611cbe565b905092915050565b600060208284031215611d5457611d53611ad8565b5b6000611d6284828501611af9565b91505092915050565b600080fd5b600080fd5b7f4e487b7100000000000000000000000000000000000000000000000000000000600052604160045260246000fd5b611dad82611902565b810181811067ffffffffffffffff82111715611dcc57611dcb611d75565b5b80604052505050565b6000611ddf611ace565b9050611deb8282611da4565b919050565b600067ffffffffffffffff821115611e0b57611e0a611d75565b5b611e1482611902565b9050602081019050919050565b82818337600083830152505050565b6000611e43611e3e84611df0565b611dd5565b905082815260208101848484011115611e5f57611e5e611d70565b5b611e6a848285611e21565b509392505050565b600082601f830112611e8757611e86611d6b565b5b8135611e97848260208601611e30565b91505092915050565b60008060008060008060c08789031215611ebd57611ebc611ad8565b5b6000611ecb89828a01611af9565b965050602087013567ffffffffffffffff811115611eec57611eeb611add565b5b611ef889828a01611e72565b955050604087013567ffffffffffffffff811115611f1957611f18611add565b5b611f2589828a01611e72565b9450506060611f3689828a01611b25565b935050608087013567ffffffffffffffff811115611f5757611f56611add565b5b611f6389828a01611e72565b92505060a087013567ffffffffffffffff811115611f8457611f83611add565b5b611f9089828a01611e72565b9150509295509295509295565b6000602082019050611fb26000830184611b7a565b92915050565b6000602082019050611fcd6000830184611bd3565b92915050565b7f4e487b7100000000000000000000000000000000000000000000000000000000600052602260045260246000fd5b6000600282049050600182168061201a57607f821691505b60208210810361202d5761202c611fd3565b5b50919050565b7f4e487b7100000000000000000000000000000000000000000000000000000000600052601160045260246000fd5b600061206d8261194c565b91506120788361194c565b92508282039050818111156120905761208f612033565b5b92915050565b7f4e487b7100000000000000000000000000000000000000000000000000000000600052603260045260246000fd5b60006120d08261194c565b91506120db8361194c565b92508282019050808211156120f3576120f2612033565b5b92915050565b60006121048261194c565b91507fffffffffffffffffffffffffffffffffffffffffffffffffffffffffffffffff820361213657612135612033565b5b600182019050919050565b7f4e487b7100000000000000000000000000000000000000000000000000000000600052603160045260246000fd5b7f596f75206d6179206e6f74206861766520656e6f7567682066756e64732e0000600082015250565b60006121a6601e83611b89565b91506121b182612170565b602082019050919050565b600060208201905081810360008301526121d581612199565b9050919050565b7f53656e64657220616e6420726563696576657220616464726573732063616e6e60008201527f6f742062652073616d652e000000000000000000000000000000000000000000602082015250565b6000612238602b83611b89565b9150612243826121dc565b604082019050919050565b600060208201905081810360008301526122678161222b565b9050919050565b60008190508160005260206000209050919050565b60006020601f8301049050919050565b600082821b905092915050565b6000600883026122d07fffffffffffffffffffffffffffffffffffffffffffffffffffffffffffffffff82612293565b6122da8683612293565b95508019841693508086168417925050509392505050565b6000819050919050565b600061231761231261230d8461194c565b6122f2565b61194c565b9050919050565b6000819050919050565b612331836122fc565b61234561233d8261231e565b8484546122a0565b825550505050565b600090565b61235a61234d565b612365818484612328565b505050565b5b818110156123895761237e600082612352565b60018101905061236b565b5050565b601f8211156123ce5761239f8161226e565b6123a884612283565b810160208510156123b7578190505b6123cb6123c385612283565b83018261236a565b50505b505050565b600082821c905092915050565b60006123f1600019846008026123d3565b1980831691505092915050565b600061240a83836123e0565b9150826002028217905092915050565b612423826118bc565b67ffffffffffffffff81111561243c5761243b611d75565b5b6124468254612002565b61245182828561238d565b600060209050601f8311600181146124845760008415612472578287015190505b61247c85826123fe565b8655506124e4565b601f1984166124928661226e565b60005b828110156124ba57848901518255600182019150602085019450602081019050612495565b868310156124d757848901516124d3601f8916826123e0565b8355505b6001600288020188555050505b50505050505056fea26469706673582212207a5db9489b009752dc76a2a268e6f24b6f0c16cc35ec6d4c0b86323c5f81a10a64736f6c63430008110033",
  "linkReferences": {},
  "deployedLinkReferences": {}
}